:100000000C9435000C945D000C945D000C945D0024
:100010000C945D000C945D000C945D000C945D00EC
:100020000C945D000C945D000C945D000C945D00DC
:100030000C945D000C945D000C945D000C945D00CC
:100040000C9434020C945D000C94A4020C947E0277
:100050000C945D000C945D000C945D000C945D00AC
:100060000C945D000C945D00250411241FBECFEF9D
:10007000D8E0DEBFCDBF11E0A0E0B1E0E8EFF8E0EE
:1000800002C005900D92A237B107D9F722E0A2E78E
:10009000B1E001C01D92A831B207E1F710E0C5E35D
:1000A000D0E004C02197FE010E947404C433D1073C
:1000B000C9F70E94D6020C947A040C9400003FB752
:1000C000F8948091770190917801A0917901B09195
:1000D0007A0126B5A89B05C02F3F19F00196A11DF6
:1000E000B11D3FBFBA2FA92F982F8827BC01CD0182
:1000F000620F711D811D911D42E0660F771F881FE1
:10010000991F4A95D1F70895CF92DF92EF92FF920F
:10011000CF93C82F0E945F006B017C0189B182954B
:100120008170C81312C00E945F006C197D098E098E
:100130009F09653671058105910580F380E0CF91B7
:10014000FF90EF90DF90CF90089581E0F8CFAF92CD
:10015000BF92CF92DF92EF92FF920F931F93CF93B4
:10016000DF936C017B018B01040F151FEB015E0116
:10017000AE18BF08C017D10759F06991D601ED91AB
:10018000FC910190F081E02DC6010995892B79F74A
:10019000C501DF91CF911F910F91FF90EF90DF90FC
:1001A000CF90BF90AF900895FC01538D448D252FC3
:1001B00030E0842F90E0821B930B541710F0CF9601
:1001C000089501970895FC01918D828D981761F033
:1001D000A28DAE0FBF2FB11D5D968C91928D9F5F4A
:1001E0009F73928F90E008958FEF9FEF0895FC0129
:1001F000918D828D981731F0828DE80FF11D858DDC
:1002000090E008958FEF9FEF0895FC01918D228D6E
:10021000892F90E0805C9F4F821B91098F739927F3
:1002200008958BE791E00E94050121E0892B09F4F4
:1002300020E0822F089580E090E0892B29F00E9431
:10024000110181110C9400000895FC01A48DA80FE8
:10025000B92FB11DA35ABF4F2C91848D90E0019608
:100260008F739927848FA689B7892C93A089B18928
:100270008C91837080648C93938D848D981306C0C9
:100280000288F389E02D80818F7D80830895EF922D
:10029000FF920F931F93CF93DF93EC0181E0888F40
:1002A0009B8D8C8D98131AC0E889F989808185FF10
:1002B00015C09FB7F894EE89FF896083E889F989B2
:1002C00080818370806480839FBF81E090E0DF91B4
:1002D000CF911F910F91FF90EF900895F62E0B8D07
:1002E00010E00F5F1F4F0F731127E02E8C8D8E11C2
:1002F0000CC00FB607FCFACFE889F989808185FF29
:10030000F5CFCE010E942501F1CFEB8DEC0FFD2F33
:10031000F11DE35AFF4FF0829FB7F8940B8FEA89E3
:10032000FB8980818062CFCFCF93DF93EC01888DF2
:100330008823B9F0AA89BB89E889F9898C9185FD60
:1003400003C0808186FD0DC00FB607FCF7CF8C91EE
:1003500085FFF2CF808185FFEDCFCE010E94250180
:10036000E9CFDF91CF910895AC01109280001092F7
:100370008100109285001092840089EF90E09093A4
:10038000890080938800909181009B609093810008
:1003900030E020E0B19BFECFB19A2F5F3F4F421774
:1003A0005307C1F7109281000895FC0101900020CD
:1003B000E9F73197AF01481B590BBC018BE791E07E
:1003C0000C94A7008F929F92AF92BF920F931F93AE
:1003D000CF93DF93CDB7DEB7A1970FB6F894DEBF0A
:1003E0000FBECDBF19A2423008F44AE08E010F5D66
:1003F0001F4F842E912CB12CA12CA50194010E9499
:100400005204E62FB901CA01EA30F4F4E05DD801E4
:10041000EE938D01232B242B252B79F790E080E0A0
:10042000109719F0CD010E94D501A1960FB6F8944E
:10043000DEBF0FBECDBFDF91CF911F910F91BF9057
:10044000AF909F908F900895E95CE1CFCF93DF93B9
:100450000E94D501EC0182E191E00E94D5018C0F50
:100460009D1FDF91CF9108951F920F920FB60F92AB
:1004700011242F933F938F939F93AF93BF938091BA
:10048000730190917401A0917501B0917601309142
:10049000720123E0230F2D3758F50196A11DB11DE0
:1004A000209372018093730190937401A09375015E
:1004B000B09376018091770190917801A0917901B4
:1004C000B0917A010196A11DB11D8093770190939F
:1004D0007801A0937901B0937A01BF91AF919F9178
:1004E0008F913F912F910F900FBE0F901F901895F5
:1004F00026E8230F0296A11DB11DD2CF1F920F92A5
:100500000FB60F9211242F933F934F935F936F93E6
:100510007F938F939F93AF93BF93EF93FF938BE75B
:1005200091E00E942501FF91EF91BF91AF919F91C2
:100530008F917F916F915F914F913F912F910F908C
:100540000FBE0F901F9018951F920F920FB60F922B
:1005500011242F938F939F93EF93FF93E0918B013F
:10056000F0918C018081E0919101F091920182FDE6
:100570001BC09081809194018F5F8F7320919501B2
:10058000821741F0E0919401F0E0E558FE4F958F1D
:1005900080939401FF91EF919F918F912F910F90F4
:1005A0000FBE0F901F9018958081F4CFCF93DF93EB
:1005B00000D000D01F92CDB7DEB7789484B58260AA
:1005C00084BD84B5816084BD85B5826085BD85B5F7
:1005D000816085BD80916E00816080936E00109275
:1005E00081008091810082608093810080918100F0
:1005F0008160809381008091800081608093800081
:100600008091B10084608093B1008091B0008160DE
:100610008093B00080917A00846080937A0080910A
:100620007A00826080937A0080917A008160809362
:100630007A0080917A00806880937A001092C100DD
:10064000E0918B01F0918C0182E08083E091870141
:10065000F09188011082E0918901F0918A018FEC7C
:10066000808310929301E0918F01F091900186E0D8
:100670008083E0918D01F0918E0180818061808383
:10068000E0918D01F0918E01808188608083E091FE
:100690008D01F0918E01808180688083E0918D01D1
:1006A000F0918E0180818F7D808365E0A62E8E0182
:1006B0000F5F1F4F7BE9E72EF12CE0E0CE2EE0E04C
:1006C000DE2ED801EA2D1D92EA95E9F7549A5C983E
:1006D00084E190E00E94B4015C9AC7010197F1F7B0
:1006E00054980E945F002B013C014C9B4EC00E941D
:1006F0005F006419750986099709653671058105DA
:10070000910598F3B12C712C88248394912C85E168
:1007100091E00E94D5018114910409F08DC08EE111
:1007200091E00E94260281E291E00E94D501672DAE
:1007300070E090E080E04AE00E94E2018EE291E009
:100740000E94260281E391E00E94D5016B2D70E0AA
:1007500090E080E04AE00E94E2018FE391E00E9495
:10076000260289E591E00E94260280ED97E00E9432
:10077000B401C114D10409F4A4CF0E94110188234B
:1007800009F49FCF0E9400009CCF80E00E9484006B
:10079000882309F4B7CF81E00E948400882309F4FC
:1007A000B1CF912C812C80E00E948400882309F431
:1007B000A9CF0E945F002B013C0181E00E948400D0
:1007C000882309F49FCF0E945F00940143E0359590
:1007D00027954A95E1F7F801E20FF31FAB01BC0141
:1007E000441955096609770981E0433351056105CC
:1007F000710508F480E0200F311FD9019C91990FF9
:10080000892B8083BFEF8B1A9B0AE8E28E16910436
:1008100051F67980BB808A81870D8B0D9C81890F71
:100820009D81912C812C891709F471CFB12C712CE9
:1008300082E0882E912C6BCF82E491E08A94892803
:1008400009F48DCF8AE491E08ACFEBE7F1E01382DF
:10085000128288EE93E0A0E0B0E084839583A683C3
:10086000B78384E091E09183808385EC90E0958765
:10087000848784EC90E09787868780EC90E0918B6A
:10088000808B81EC90E0938B828B82EC90E0958B57
:10089000848B86EC90E0978B868B118E128E138E54
:1008A000148E0895A1E21A2EAA1BBB1BFD010DC0D8
:1008B000AA1FBB1FEE1FFF1FA217B307E407F50710
:1008C00020F0A21BB30BE40BF50B661F771F881FEC
:1008D000991F1A9469F760957095809590959B0182
:1008E000AC01BD01CF010895EE0FFF1F0590F491FB
:0808F000E02D0994F894FFCFFC
:1008F800000000004701A700D40094010501E300AF
:10090800F7000D0A005374617475733A20004F4B59
:100918000057696C676F746E6F73633A2000202507
:100928000054656D70657261747572613A200020BB
:10093800430054494D454F555400434845434B5394
:10094800554D204552524F52002D2D2D2D2D2D2D18
:100958002D2D2D2D2D2D2D2D2D2D2D2D2D2D2D2DBF
:020968002D0060
:00000001FF
